:03004300020900AF
:030053000209009F
:10090000020AD800020B1E00020B0800020AF000C7
:100910000209F5000209B8000200FF00020BAC005A
:10092000020BAD00020BAE00020BAF00020BB000D9
:10093000020BB100020BB200020BB300020BB400B9
:10094000020BB500020BAC00020BB600020BB700A5
:10095000020BB800020BB900020BBA00020BBB007D
:10096000020BBC00020BAC00020BAC00020BAC0093
:10097000020BBD00020BBE00020BBF00020BC00049
:10098000020BC100020BC200020BC300020BC40029
:10099000020BC500020BC600020BC700020BC80009
:1009A000020BC900020BCA00020BCB00020BCC00E9
:0809B000020BCD00020BCE008A
:1000800090E600E054E74410F0E490E601F075B328
:10009000F07590F07FD07E071208BA90E61174B028
:1000A000F000000090E61274F0F000000090E614FA
:1000B00074A2F000000090E61574E2F000000090D9
:1000C000E6997480F0000000F000000043AF0122C8
:100A2B00E59020E6FB90E6787480F090E6797441CF
:100A3B00F090E678E030E0F97420F090E679E0F59C
:100A4B001E90E678E030E0F97440F090E679E0FF34
:010A5B002278
:1004CA0090E6A2E030E1030205AFE490E7C3F0A3AF
:1004DA00F07590E0E59020E00890E7C3741EF08084
:1004EA0025E59020E10890E7C3741FF08018E59095
:1004FA0020E20890E7C37420F0800BE59020E30621
:10050A0090E7C37404F07590D0E59020E00890E776
:10051A00C37421F08025E59020E10890E7C3742296
:10052A00F08018E59020E20890E7C37423F0800B6E
:10053A00E59020E30690E7C37405F07590B0E59066
:10054A0020E00890E7C37424F08025E59020E108B4
:10055A0090E7C37425F08018E59020E20890E7C37D
:10056A007426F0800BE59020E30690E7C37406F04A
:10057A00759070E59020E00890E7C37455F08025E7
:10058A00E59020E10890E7C37427F08018E59020F1
:10059A00E20890E7C374CCF0800BE59020E3069064
:1005AA00E7C37407F0E490E7C0F0A3F0A3F090E685
:1005BA008F7405F0E5AA20E471E5AA20E76C74F8C7
:1005CA00F59A7400F59B7AFC790074FCF59D740029
:1005DA00F59E90E698E0FE90E699E07C002400F50E
:1005EA001BEC3EF51AE4F518F519C3E519951BE558
:1005FA0018951A501990E67BE090E67CF07FF47E1D
:10060A00011208BA0519E5197002051880DC90E68E
:10061A0098E090E69CF000000090E699E090E69D54
:0A062A00F000000090E6997480F0E3
:0106340022A3
:020B9E00D32260
:020BA000D3225E
:020BA200D3225C
:10079C0075210175222E7525017526C2752A0175E4
:1007AC002BF47523017524477527017528F4752CD6
:1007BC0002752D3390E6BBE024DE607A0460030200
:1007CC0008B890E6BCE014603504706190E6BEE0B9
:1007DC00F518E521F59AE522F59BE4FDEDC3951896
:1007EC00501490E67BE0FF74402DF582E434E7F57D
:1007FC0083EFF00D80E690E68BE518F0803690E6FE
:10080C00BEE0FCE523F59AE524F59BE4FDEDC39CE5
:10081C00501490E67BE0FF74402DF582E434E7F54C
:10082C0083EFF00D80E790E68BECF0800790E6A06C
:10083C00E04401F0C32290E6BCE01460360470631F
:10084C00AD26C3E52B9DF518E525F59AEDF59BE452
:10085C00FDEDC39518501490E67BE0FF74402DF528
:10086C0082E434E7F583EFF00D80E690E68BE51833
:10087C00F08037AD28C3E52D9DFCE527F59AEDF505
:10088C009BE4FDEDC39C501490E67BE0FF74402D7F
:10089C00F582E434E7F583EFF00D80E790E68BEC1E
:0D08AC00F0800790E6A0E04401F0C322D3E5
:0108B900221C
:080B8A0090E6BAE0F52ED3223B
:100B340090E740E52EF0E490E68AF090E68B04F02E
:020B4400D322BA
:080B920090E6BAE0F529D32238
:100B460090E740E529F0E490E68AF090E68B04F021
:020B5600D322A8
:020BA400D3225A
:020BA600D32258
:020BA800D32256
:020BAA00D32254
:100AD800C0E0C083C082D2015391EF90E65D7401FB
:080AE800F0D082D083D0E0328F
:100B0800C0E0C083C0825391EF90E65D7404F0D0DA
:060B180082D083D0E03220
:100B1E00C0E0C083C0825391EF90E65D7402F0D0C6
:060B2E0082D083D0E0320A
:1009F500C0E0C083C082853733853834853482852D
:100A05003383A37402F0852F35853036853682858C
:100A15003583A37407F05391EF90E65D7410F0D021
:060A250082D083D0E03214
:100AF000C0E0C083C082D2035391EF90E65D7408DA
:080B0000F0D082D083D0E03276
:1009B800C0E0C083C08290E680E030E720852F3316
:1009C800853034853482853383A37402F0853735C6
:1009D800853836853682853583A37407F05391EFC1
:0D09E80090E65D7420F0D082D083D0E03224
:0100FF0032CE
:010BAC003216
:010BAD003215
:010BAE003214
:010BAF003213
:010BB0003212
:010BB1003211
:010BB2003210
:010BB300320F
:010BB400320E
:010BB500320D
:010BB600320C
:010BB700320B
:010BB800320A
:010BB9003209
:010BBA003208
:010BBB003207
:010BBC003206
:010BBD003205
:010BBE003204
:010BBF003203
:010BC0003202
:010BC1003201
:010BC2003200
:010BC30032FF
:010BC40032FE
:010BC50032FD
:010BC60032FC
:010BC70032FB
:010BC80032FA
:010BC90032F9
:010BCA0032F8
:010BCB0032F7
:010BCC0032F6
:010BCD0032F5
:010BCE0032F4
:100100001201000200000040B404041001000000CD
:1001100000010A060002000000400100090252002E
:1001200003010080320904000001030002010921DB
:10013000100100012232000705820340000A090471
:1001400001000103000002092110010001223F000B
:100150000705810340000A0904020002FF000000B5
:0E0160000705060200020007058802000200E3
:10017000090252000301008032090400000103005B
:10018000020009211001000122320007058203400C
:10019000000A090401000103000000092110010008
:1001A00001223F000705810340000A090402000202
:1001B000FF00000007050602400000070588024016
:1001C000000005010902A1010901A10095037501C3
:1001D00005091901290315002501810295017505FD
:1001E0008101750895020501093009311581257FC6
:1001F0008106C0C005010906A101050719E029E72C
:100200001500250175019508810295017508810188
:1002100095057501050819012905910295017503D8
:1002200091019503750815002565050719002965D5
:100230008100C000040309040C034D006F00750029
:100240007300650012034B006500790042006F00E7
:0802500061007200640000006F
:0A0B8000000102020303040405054E
:10063500E4F513F512F511F510C203C200C202C2AA
:10064500011200807E017F008E318F327539017570
:100655003A12752F0175301C753701753870753B69
:1006650002753C34EE54C0700302073675140075EC
:1006750015808E168F17C374569FFF74029ECF2464
:1006850002CF3400FEE48F0F8E0EF50DF50CF50B41
:10069500F50AF509F508AF0FAE0EAD0DAC0CAB0BB9
:1006A500AA0AA909A808C3120B585033E517250B48
:1006B500F582E516350AF583E0FFE515250BF5828C
:1006C500E514350AF583EFF0E50B2401F50BE43568
:1006D5000AF50AE43509F509E43508F50880B78512
:1006E500143185153274002480FF740134FFFEC374
:1006F500E53A9FF53AE5399EF539C3E5349FF5347A
:10070500E5339EF533C3E5369FF536E5359EF5357C
:10071500C3E5309FF530E52F9EF52FC3E5389FF5EE
:1007250038E5379EF537C3E53C9FF53CE53B9EF53F
:100735003BD2E843D82090E668E04409F090E65CB7
:10074500E0443DF0D2AF90E680E020E105D204120E
:1007550000D090E680E054F7F0538EF8C2031204FF
:10076500CA300105120258C2013003F2120B9E5025
:10077500EDC203120AB320001690E682E030E704CA
:10078500E020E1EF90E682E030E604E020E0E412CC
:070795000A5C120BA080C7F3
:0B0B750090E50DE030E402C322D32223
:1002580090E6B8E0546024E070030204B124E07032
:10026800030204A7244060030204BB90E6B9E070CF
:10027800030203321470030203B124FE7003020464
:100288003824FB700302032C147003020326147035
:100298000302031A147003020320240560030204F6
:1002A800A212079C40030204C290E6BBE024FE6051
:1002B8002714603824FD601114602724067050E567
:1002C8003190E6B3F0E532803C120B75503EE539CB
:1002D80090E6B3F0E53A802DE53390E6B3F0E534E7
:1002E8008023E53590E6B3F0E536801990E6BAE06C
:1002F800FF120A88AA06A9077B01EA494B600DEE9E
:1003080090E6B3F0EF90E6B4F00204C202049D0256
:10031800049D120B460204C2120B920204C2120B75
:100328008A0204C2120B340204C2120BA440030254
:1003380004C290E6B8E0247F6015146019240270A6
:1003480065A200E43325E0FFA202E4334F8043E4D2
:1003580090E740F0804190E6BCE0D39480748094AC
:10036800807E0040047F0180027F0090E6BCE0545C
:100378007EFDEF4D2480F582740B3EF583E493FFF8
:100388003395E0FEEF24A1FFEE34E68F82F583E09B
:10039800540190E740F0E4A3F090E68AF090E68BF1
:1003A8007402F00204C202049D120BA64003020468
:1003B800C290E6B8E024FE6017240260030204C27B
:1003C80090E6BAE064017005C2000204C202049D0E
:1003D80090E6BAE0705890E6BCE0D39480748094BC
:1003E800807E0040047F0180027F0090E6BCE054DC
:1003F8007EFDEF4D2480F582740B3EF583E493FF78
:100408003395E0FEEF24A1FFEE34E68F82F583E01A
:1004180054FEF090E6BCE05480131313541FFFE021
:10042800540F2F90E683F0E04420F00204C2806568
:10043800120BA840030204C290E6B8E024FE601A3A
:100448002402705190E6BAE064017004D200806A18
:1004580090E6BAE064026062803B90E6BCE0D39428
:1004680080748094807E0040047F0180027F009029
:10047800E6BCE0547EFDEF4D2480F582740B3EF51A
:1004880083E493FF3395E0FEEF24A1FFEE34E68F7B
:1004980082F583802190E6A0801C90E6A080171248
:1004A8000BAA501690E6A0800D120BA2500C90E6F5
:1004B800A0800390E6A0E04401F090E6A0E044802C
:0104C800F043
:0104C9002210
:03003300020B9A23
:040B9A0053D8EF320B
:100A5C0090E682E030E004E020E60B90E682E030A5
:100A6C00E119E030E71590E680E04401F07F147E58
:0C0A7C00001208BA90E680E054FEF02260
:1000D00030040990E680E0440AF0800790E680E072
:1000E0004408F07FDC7E051208BA90E65D74FFF0EC
:0F00F00090E65FF05391EF90E680E054F7F02236
:1008BA008E1C8F1D90E600E054187012E51D24016D
:1008CA00FFE4351CC313F51CEF13F51D801590E6E4
:1008DA0000E05418FFBF100BE51D25E0F51DE51CCF
:1008EA0033F51CE51D151DAE1C7002151C4E600566
:0608FA00120AC780EE2285
:020A8800A907BC
:100A8A00AE3BAF3C8F828E83A3E064037017AD0147
:100A9A0019ED7001228F828E83E07C002FFDEC3EDF
:080AAA00FEAF0580DFE4FEFF52
:010AB2002221
:100AB30090E682E044C0F090E681F04387010000B5
:040AC300000000220D
:100AC7007400F58690FDA57C05A3E582458370F942
:010AD70022FC
:03000000020B6987
:0C0B6900787FE4F6D8FD75813C0206356B
:100B5800EB9FF5F0EA9E42F0E99D42F0E89C45F0F3
:010B6800226A
:00000001FF
